{
  "_format": "hh-sol-artifact-1",
  "contractName": "AttendanceRecorder",
  "sourceName": "contracts/AttendanceRecorder.sol",
  "abi": [
    {
      "anonymous": false,
      "inputs": [
        {
          "indexed": true,
          "internalType": "bytes32",
          "name": "dataHash",
          "type": "bytes32"
        },
        {
          "indexed": true,
          "internalType": "address",
          "name": "sender",
          "type": "address"
        },
        {
          "indexed": false,
          "internalType": "uint256",
          "name": "timestamp",
          "type": "uint256"
        }
      ],
      "name": "Recorded",
      "type": "event"
    },
    {
      "inputs": [
        {
          "internalType": "bytes32",
          "name": "dataHash",
          "type": "bytes32"
        }
      ],
      "name": "recordData",
      "outputs": [],
      "stateMutability": "nonpayable",
      "type": "function"
    },
    {
      "inputs": [
        {
          "internalType": "bytes32",
          "name": "",
          "type": "bytes32"
        }
      ],
      "name": "seen",
      "outputs": [
        {
          "internalType": "bool",
          "name": "",
          "type": "bool"
        }
      ],
      "stateMutability": "view",
      "type": "function"
    }
  ],
  "bytecode": "0x608060405234801561001057600080fd5b50610309806100206000396000f3fe608060405234801561001057600080fd5b50600436106100365760003560e01c8063beeb3f341461003b578063cc204b651461006b575b600080fd5b610055600480360381019061005091906101bf565b610087565b6040516100629190610207565b60405180910390f35b610085600480360381019061008091906101bf565b6100a7565b005b60006020528060005260406000206000915054906101000a900460ff1681565b60008082815260200190815260200160002060009054906101000a900460ff1615610107576040517f08c379a00000000000000000000000000000000000000000000000000000000081526004016100fe9061027f565b60405180910390fd5b600160008083815260200190815260200160002060006101000a81548160ff0219169083151502179055503373ffffffffffffffffffffffffffffffffffffffff16817fc4010a01a103c0f58e041a8695f9aea8133f5a3714196b841ddadc216d9ac2244260405161017991906102b8565b60405180910390a350565b600080fd5b6000819050919050565b61019c81610189565b81146101a757600080fd5b50565b6000813590506101b981610193565b92915050565b6000602082840312156101d5576101d4610184565b5b60006101e3848285016101aa565b91505092915050565b60008115159050919050565b610201816101ec565b82525050565b600060208201905061021c60008301846101f8565b92915050565b600082825260208201905092915050565b7f616c7265616479207265636f7264656400000000000000000000000000000000600082015250565b6000610269601083610222565b915061027482610233565b602082019050919050565b600060208201905081810360008301526102988161025c565b9050919050565b6000819050919050565b6102b28161029f565b82525050565b60006020820190506102cd60008301846102a9565b9291505056fea26469706673582212208c46d96fe9eee8d6f7160578edb2d4a656635b99dd0e7c6db55b2d7fef790f3064736f6c63430008140033",
  "linkReferences": {},
  "deployedLinkReferences": {}
}